{
  "contractName": "DataSwapper",
  "abi": [
    {
      "constant": false,
      "inputs": [
        {
          "name": "key",
          "type": "string"
        }
      ],
      "name": "getData",
      "outputs": [
        {
          "name": "",
          "type": "string"
        }
      ],
      "payable": false,
      "stateMutability": "nonpayable",
      "type": "function"
    },
    {
      "constant": false,
      "inputs": [
        {
          "name": "destChainID",
          "type": "address"
        },
        {
          "name": "destAddr",
          "type": "string"
        },
        {
          "name": "key",
          "type": "string"
        }
      ],
      "name": "get",
      "outputs": [],
      "payable": false,
      "stateMutability": "nonpayable",
      "type": "function"
    },
    {
      "constant": false,
      "inputs": [
        {
          "name": "key",
          "type": "string"
        },
        {
          "name": "value",
          "type": "string"
        }
      ],
      "name": "set",
      "outputs": [],
      "payable": false,
      "stateMutability": "nonpayable",
      "type": "function"
    },
    {
      "constant": false,
      "inputs": [
        {
          "name": "key",
          "type": "string"
        },
        {
          "name": "value",
          "type": "string"
        }
      ],
      "name": "interchainSet",
      "outputs": [],
      "payable": false,
      "stateMutability": "nonpayable",
      "type": "function"
    },
    {
      "constant": true,
      "inputs": [
        {
          "name": "key",
          "type": "string"
        }
      ],
      "name": "interchainGet",
      "outputs": [
        {
          "name": "",
          "type": "bool"
        },
        {
          "name": "",
          "type": "string"
        }
      ],
      "payable": false,
      "stateMutability": "view",
      "type": "function"
    }
  ],
  "bytecode": "0x608060405260fa600160006101000a81548173ffffffffffffffffffffffffffffffffffffffff021916908373ffffffffffffffffffffffffffffffffffffffff16021790555073d0e1b0d7d04ca60f11ab3c58b7782b2379fa9090600260006101000a81548173ffffffffffffffffffffffffffffffffffffffff021916908373ffffffffffffffffffffffffffffffffffffffff160217905550600260009054906101000a900473ffffffffffffffffffffffffffffffffffffffff16600360006101000a81548173ffffffffffffffffffffffffffffffffffffffff021916908373ffffffffffffffffffffffffffffffffffffffff16021790555034801561010a57600080fd5b50610db58061011a6000396000f3fe608060405234801561001057600080fd5b50600436106100575760003560e01c80636079cf2a1461005c57806393c00ab01461019b57806399489c21146102ed578063ae55c8881461045f578063e942b51614610593575b600080fd5b6101156004803603602081101561007257600080fd5b810190808035906020019064010000000081111561008f57600080fd5b8201836020820111156100a157600080fd5b803590602001918460018302840111640100000000831117156100c357600080fd5b91908080601f016020809104026020016040519081016040528093929190818152602001838380828437600081840152601f19601f8201169050808301925050505050505091929192905050506106e5565b604051808315151515815260200180602001828103825283818151815260200191508051906020019080838360005b8381101561015f578082015181840152602081019050610144565b50505050905090810190601f16801561018c5780820380516001836020036101000a031916815260200191505b50935050505060405180910390f35b6102eb600480360360408110156101b157600080fd5b81019080803590602001906401000000008111156101ce57600080fd5b8201836020820111156101e057600080fd5b8035906020019184600183028401116401000000008311171561020257600080fd5b91908080601f016020809104026020016040519081016040528093929190818152602001838380828437600081840152601f19601f8201169050808301925050505050505091929192908035906020019064010000000081111561026557600080fd5b82018360208201111561027757600080fd5b8035906020019184600183028401116401000000008311171561029957600080fd5b91908080601f016020809104026020016040519081016040528093929190818152602001838380828437600081840152601f19601f8201169050808301925050505050505091929192905050506108bc565b005b61045d6004803603606081101561030357600080fd5b81019080803573ffffffffffffffffffffffffffffffffffffffff1690602001909291908035906020019064010000000081111561034057600080fd5b82018360208201111561035257600080fd5b8035906020019184600183028401116401000000008311171561037457600080fd5b91908080601f016020809104026020016040519081016040528093929190818152602001838380828437600081840152601f19601f820116905080830192505050505050509192919290803590602001906401000000008111156103d757600080fd5b8201836020820111156103e957600080fd5b8035906020019184600183028401116401000000008311171561040b57600080fd5b91908080601f016020809104026020016040519081016040528093929190818152602001838380828437600081840152601f19601f82011690508083019250505050505050919291929050505061098d565b005b6105186004803603602081101561047557600080fd5b810190808035906020019064010000000081111561049257600080fd5b8201836020820111156104a457600080fd5b803590602001918460018302840111640100000000831117156104c657600080fd5b91908080601f016020809104026020016040519081016040528093929190818152602001838380828437600081840152601f19601f820116905080830192505050505050509192919290505050610b57565b6040518080602001828103825283818151815260200191508051906020019080838360005b8381101561055857808201518184015260208101905061053d565b50505050905090810190601f1680156105855780820380516001836020036101000a031916815260200191505b509250505060405180910390f35b6106e3600480360360408110156105a957600080fd5b81019080803590602001906401000000008111156105c657600080fd5b8201836020820111156105d857600080fd5b803590602001918460018302840111640100000000831117156105fa57600080fd5b91908080601f016020809104026020016040519081016040528093929190818152602001838380828437600081840152601f19601f8201169050808301925050505050505091929192908035906020019064010000000081111561065d57600080fd5b82018360208201111561066f57600080fd5b8035906020019184600183028401116401000000008311171561069157600080fd5b91908080601f016020809104026020016040519081016040528093929190818152602001838380828437600081840152601f19601f820116905080830192505050505050509192919290505050610c62565b005b60006060600260009054906101000a900473ffffffffffffffffffffffffffffffffffffffff1673ffffffffffffffffffffffffffffffffffffffff163373ffffffffffffffffffffffffffffffffffffffff16146107ac576040517f08c379a000000000000000000000000000000000000000000000000000000000815260040180806020018281038252601a8152602001807f496e766f6b657220617265206e6f74207468652042726f6b657200000000000081525060200191505060405180910390fd5b60016000846040518082805190602001908083835b602083106107e457805182526020820191506020810190506020830392506107c1565b6001836020036101000a0380198251168184511680821785525050505050509050019150509081526020016040518091039020808054600181600116156101000203166002900480601f0160208091040260200160405190810160405280929190818152602001828054600181600116156101000203166002900480156108ac5780601f10610881576101008083540402835291602001916108ac565b820191906000526020600020905b81548152906001019060200180831161088f57829003601f168201915b5050505050905091509150915091565b600260009054906101000a900473ffffffffffffffffffffffffffffffffffffffff1673ffffffffffffffffffffffffffffffffffffffff163373ffffffffffffffffffffffffffffffffffffffff161461097f576040517f08c379a000000000000000000000000000000000000000000000000000000000815260040180806020018281038252601a8152602001807f496e766f6b657220617265206e6f74207468652042726f6b657200000000000081525060200191505060405180910390fd5b6109898282610c62565b5050565b6000600360009054906101000a900473ffffffffffffffffffffffffffffffffffffffff1673ffffffffffffffffffffffffffffffffffffffff16635e7d7c4c8585856040518463ffffffff1660e01b8152600401808473ffffffffffffffffffffffffffffffffffffffff1673ffffffffffffffffffffffffffffffffffffffff1681526020018060200180602001838103835285818151815260200191508051906020019080838360005b83811015610a55578082015181840152602081019050610a3a565b50505050905090810190601f168015610a825780820380516001836020036101000a031916815260200191505b50838103825284818151815260200191508051906020019080838360005b83811015610abb578082015181840152602081019050610aa0565b50505050905090810190601f168015610ae85780820380516001836020036101000a031916815260200191505b5095505050505050602060405180830381600087803b158015610b0a57600080fd5b505af1158015610b1e573d6000803e3d6000fd5b505050506040513d6020811015610b3457600080fd5b8101908080519060200190929190505050905080610b5157600080fd5b50505050565b60606000826040518082805190602001908083835b60208310610b8f5780518252602082019150602081019050602083039250610b6c565b6001836020036101000a03801982511681845116808217855250505050505090500191505090815260200160405180910390208054600181600116156101000203166002900480601f016020809104026020016040519081016040528092919081815260200182805460018160011615610100020316600290048015610c565780601f10610c2b57610100808354040283529160200191610c56565b820191906000526020600020905b815481529060010190602001808311610c3957829003601f168201915b50505050509050919050565b806000836040518082805190602001908083835b60208310610c995780518252602082019150602081019050602083039250610c76565b6001836020036101000a03801982511681845116808217855250505050505090500191505090815260200160405180910390209080519060200190610cdf929190610ce4565b505050565b828054600181600116156101000203166002900490600052602060002090601f016020900481019282601f10610d2557805160ff1916838001178555610d53565b82800160010185558215610d53579182015b82811115610d52578251825591602001919060010190610d37565b5b509050610d609190610d64565b5090565b610d8691905b80821115610d82576000816000905550600101610d6a565b5090565b9056fea165627a7a723058205cb69a9c7266ccd5e01e196835a14d040dce59cb783bf67f4fe95e521b74574d0029",
  "source": "pragma solidity >=0.5.7;\n\ncontract DataSwapper {\n    mapping(string => string) dataM; // map for accounts\n    Hasher hasher = Hasher(0x00000000000000000000000000000000000000fa);\n    // change the address of Broker accordingly\n    address BrokerAddr = 0xD0E1B0d7D04CA60F11Ab3C58b7782B2379fa9090;\n    DataBroker broker = DataBroker(BrokerAddr);\n\n    // AccessControl\n    modifier onlyBroker() {\n        require(msg.sender == BrokerAddr, \"Invoker are not the Broker\");\n        _;\n    }\n\n    // Business contract for data exchange class\n    function getData(string memory key) public returns (string memory) {\n        return dataM[key];\n    }\n\n    function get(\n        address destChainID,\n        string memory destAddr,\n        string memory key\n    ) public {\n        bool ok = broker.InterchainDataSwapInvoke(destChainID, destAddr, key);\n        require(ok);\n    }\n\n    function set(string memory key, string memory value) public {\n        dataM[key] = value;\n    }\n\n    function interchainSet(string memory key, string memory value)\n        public\n        onlyBroker\n    {\n        set(key, value);\n    }\n\n    function interchainGet(string memory key)\n        public\n        view\n        onlyBroker\n        returns (bool, string memory)\n    {\n        return (true, dataM[key]);\n    }\n}\n\ncontract DataBroker {\n    function InterchainDataSwapInvoke(\n        address destChainID,\n        string memory destAddr,\n        string memory key\n    ) public returns (bool);\n}\n\ncontract Hasher {\n    function getHash() public returns (bytes32);\n}\n",
  "sourcePath": "/home/hallvard/Masters-Programing/testv1.0.0-rc/Scripts/Ethereum02/contracts/data_swapper.sol",
  "compiler": {
    "name": "solc",
    "version": "0.5.7+commit.6da8b019.Emscripten.clang"
  },
  "schemaVersion": "3.4.5",
  "updatedAt": "2022-03-21T12:13:38.002Z",
  "networkType": "ethereum",
  "devdoc": {
    "methods": {}
  },
  "userdoc": {
    "methods": {}
  }
}